:020000040000FA
:040000003CEF09F0D8
:100CAD00010001C58AC5881200C58077EC06F012D7
:100CBD0000C58477EC06F01200C58677EC06F012BD
:100CCD0000C58277EC06F012002F6E2FC0C9FF779A
:100CDD00EC06F0120063EC06F058EC06F0C9501269
:100CED00009EA67CEF06F07EEF06F077EF06F09EF5
:100CFD009612000F0EC16E1E0E936EF19E8150E086
:100D0D0009816E12002F6E2FC0A9FFA694A69EA674
:100D1D009CA680A850120094869488280EC66E3129
:100D2D000EC86EC79CC78E9E96A1961200526E007D
:100D3D000E2F6E515050EC07F0010E2F6E52505089
:100D4D00EC07F012002F6E9EA8AFEF06F0B1EF0684
:100D5D00F0AAEF06F09E982FC0ADFF1200C08EC016
:100D6D009AC088C096C090C082C094C292C19AC1E8
:100D7D0098C46AC36AC2801200386E5BEC06F0D06C
:100D8D000E6BEC06F038506BEC06F037506BEC0642
:100D9D00F05FEC06F01200948E949CAC9CAC8AAC87
:100DAD0098AC96AC84AB8EAB9CAB88B896810EAFED
:100DBD006E9E989E9A1200526E5250C5EC0DF01B0D
:100DCD000E316E2F0E326E800E336E06EC09F0C6AC
:100DDD000E316E326AC10E336E06EC09F012003020
:100DED006E5BEC06F0A00E6BEC06F030506BEC0673
:100DFD00F067EC06F0A10E6BEC06F071EC06F0312D
:100E0D006E5FEC06F031501200306E5BEC06F0D0E8
:100E1D000E6BEC06F030506BEC06F067EC06F0D183
:100E2D000E6BEC06F071EC06F0316E5FEC06F031F6
:100E3D005012002FC034F02AEF07F03450D96EDA7B
:100E4D006A30C0DFFF342A3206D8A03306322806B6
:100E5D00E13328D8A435EF07F037EF07F024EF077B
:100E6D00F01200306E30C0A9FF2FC0A8FFA69EA6BD
:100E7D009CA684F29E550EA76EAA0EA76EA682F2B0
:100E8D008EA1A84CEF07F04EEF07F047EF07F0A14A
:100E9D00981200306E2FB002D0829201D082823033
:100EAD00C083FF82848294958E8280829282848216
:100EBD009483BE64EF07F066EF07F05DEF07F082F5
:100ECD0090959E1200956A9450F80B946E82900046
:100EDD000E2F6E020E50EC07F0000E2F6E380E50D6
:100EED00EC07F0000E2F6E0C0E50EC07F0000E2FDD
:100EFD006E010E50EC07F01200256A236ADF0E2FEB
:100F0D006E000E316E000E306E000E336E040E321A
:100F1D006E20EC07F0C10E2F6E000E316E5F0E309D
:100F2D006E000E336E040E326E20EC07F0000E2FA5
:100F3D006E010E50EC07F01200356E35C031F0D851
:100F4D00903136D8903136C250C30B3110C26EC2BB
:100F5D0082C2B2B4EF07F0B6EF07F0AFEF07F0C300
:100F6D0050C4CF31F0326A31C032F0316A311033B2
:100F7D006E3250346E33C02FF034C030F01200009A
:100F8D000E0BEC07F0396E39508009376E000EC329
:100F9D00EC06F0020E0BEC07F0396E3950400937B4
:100FAD006E020EC3EC06F0930E376E070EC3EC0601
:100FBD00F0000E0BEC07F0396E39507F0B376E00D9
:100FCD000EC3EC06F012002FC035F030C036F031F4
:100FDD0050336E3250346E314A322A33C0F6FF34FC
:100FED00C0F7FFF86A35C0D9FF36C0DAFF354A368B
:100FFD002A050EF76403D00800F55005D0F6CFE9A9
:10100D00FFF7CFEAFFEF50DF6EDF50D8A411EF08E6
:10101D00F013EF08F0EEEF07F01200376E5BEC0601
:10102D00F0A00E6BEC06F037506BEC06F032506B07
:10103D00EC06F05FEC06F0B80E336E0B0E346E005E
:10104D000E356E000E366E3306000E345A355A3696
:10105D005A33280AE1342808E1352806E13628D824
:10106D00A43BEF08F03DEF08F02AEF08F012005412
:10107D00EF08F030C0F6FF31C0F7FFF86A050EF744
:10108D006403D00800F55005D0F6CFE9FFF7CFEA9D
:10109D00FFEF50A9EC06F0304A312A30C0F6FF318F
:1010AD00C0F7FFF86A050EF76403D00800F5500588
:1010BD00D0F6CFE9FFF7CFEAFFEF500009D8A46AC9
:1010CD00EF08F06CEF08F040EF08F01200196A20FD
:1010DD006A090E206475EF08F077EF08F079EF08D4
:1010ED00F09DEF08F01F6A0D0E1F6480EF08F0826F
:1010FD00EF08F084EF08F09AEF08F020500F0D0084
:10110D000EF324326E010EF420336E1F503224D9AB
:10111D006E000E3320DA6E1950F6EC06F0DF6E1904
:10112D002A1F2A7AEF08F0202A6FEF08F0120043E9
:10113D005F004F4E00474E004731004732004733A6
:10114D000047340047350047520056696577206CDB
:10115D006F67000000000000446F776E6C6F616474
:10116D00206C6F670000436C656172206C6F6700C7
:10117D00000000005365742074696D650000000067
:10118D000000526573657420506173776F7264004F
:10119D005F5F5F5F00000E376E000E386E000E3918
:1011AD006E000E3A6E2FA0DEEF08F0E0EF08F0E8CB
:1011BD00EF08F03350372634503822355039223667
:1011CD00503A22D8903336343635363636D89032BA
:1011DD0032313230322F322F50301031103210D890
:1011ED00A4FBEF08F0FDEF08F0D9EF08F037C02FA2
:1011FD00F038C030F039C031F03AC032F012000092
:10120D000E2F6E335050EC07F023EF09F0010E2F27
:10121D006E31C0F6FF32C0F7FFF86A050EF76403B2
:10122D00D00800F55005D0F6CFE9FFF7CFEAFFEF74
:10123D005050EC07F0314A322A31C0F6FF32C0F778
:10124D00FFF86A050EF76403D00800F55005D0F6D7
:10125D00CFE9FFF7CFEAFFEF500009D8A439EF0926
:10126D00F03BEF09F00DEF09F012003C0EF66E1198
:10127D000EF76E000EF86E00EE60F010EE66F009DF
:10128D0000F5CFEEFFE550E150FAE1AD0EF66E0C34
:10129D000EF76E000EF86E0900F5CF5DF00900F542
:1012AD00CF5EF00900F5CF5FF001EE00F0960EEE87
:1012BD006AE806FDE100EEC6F0230EEE6AE806FDD3
:1012CD00E100EE01F02E0EEE6AE806FDE1000EF8EB
:1012DD006E0001F0EF0CF02F6E2F04D8A479EF09FA
:1012ED00F07BEF09F09EEF09F048EC0EF0186E1848
:1012FD0028D8B484EF09F086EF09F092EF09F05F7A
:10130D0050D8B48CEF09F08EEF09F092EF09F05F31
:10131D006A1850ABEF09F01828D8A498EF09F09A85
:10132D00EF09F0AAEF09F0010E5F6EAAEF09F02F99
:10133D0050D8A4A4EF09F0A6EF09F0AAEF09F048E0
:10134D00EC0EF0ABEF09F0FF0E1200020E0BEC07E6
:10135D00F0096E010E0BEC07F00A6E000E0BEC0798
:10136D00F00B6E09ACBDEF09F0BFEF09F0CAEF0944
:10137D00F009380F0B010B300F266E09500F0B3093
:10138D000F276ED3EF09F009380F0B030B300F2623
:10139D006E09500F0B300F276E3A0E286E0A380F5C
:1013AD000B0F0B300F296E0A500F0B300F2A6E3AB0
:1013BD000E2B6E0B380F0B0F0B300F2C6E0B500FBF
:1013CD000B300F2D6E2E6A12004C504D104E104FDB
:1013DD0010D8B4F4EF09F0F6EF09F026EF0AF0019A
:1013ED000E506E00EF0AF0D8904C364D364E364FFB
:1013FD0036502A4FAE05EF0AF007EF0AF0FAEF0963
:10140D00F04C50485C4D5049584E504A584F504B37
:10141D0058D8A014EF0AF016EF0AF01EEF0AF04CA0
:10142D0050485E4D50495A4E504A5A4F504B5AD81B
:10143D00904F324E324D324C32502E07EF0AF0485B
:10144D00C048F049C049F04AC04AF04BC04BF012B9
:10145D0000D2EC06F0B5EC06F080EC06F069EC0776
:10146D00F092EC06F0C6EC07F029EC0CF00C0E3007
:10147D006E2E0E316E3EEC08F06DEC08F0E20E3182
:10148D006E2F0E326E840E336E06EC09F08B0E311C
:10149D006E2F0E326EC10E336E06EC09F0200E016A
:1014AD006EA10E026E070E036E000E046E01060095
:1014BD000E025A035A045A01280AE1022808E103D0
:1014CD002806E10428D8A46EEF0AF070EF0AF05D4B
:1014DD00EF0AF0000E2F6E010E50EC07F012007B9C
:1014ED00EF0AF02F2A304A312A2F50D96EDA6ADFEF
:1014FD0050326E30C0F6FF31C0F7FFF86A050EF7B7
:10150D006403D00800F55005D0F6CFE9FFF7CFEA18
:10151D00FFEF503218D8A496EF0AF098EF0AF0A317
:10152D00EF0AF02F50D96EDA6ADF50D8A4A1EF0A76
:10153D00F0A3EF0AF078EF0AF02F50D96EDA6ADFD8
:10154D0050326E30C0F6FF31C0F7FFF86A050EF766
:10155D006403D00800F55005D0F6CFE9FFF7CFEAC8
:10156D00FFEF50336E3350325C2F6E306AD8A0309F
:10157D00061200000E436E000E446E000E456E0006
:10158D000E466E3F50401041104210D8B4D1EF0AB4
:10159D00F0D3EF0AF009EF0BF0010E476EDDEF0A05
:1015AD00F0D8903F36403641364236472A42AEE2B9
:1015BD00EF0AF0E4EF0AF0D7EF0AF0D89043364483
:1015CD0036453646363F503B5C40503C5841503DC9
:1015DD005842503E58D8A0F6EF0AF0F8EF0AF00145
:1015ED00EF0BF03F503B5E40503C5A41503D5A424C
:1015FD00503E5A4380D8904232413240323F3247BA
:10160D002EE4EF0AF043C03BF044C03CF045C03D32
:10161D00F046C03EF01200346A30BE1AEF0BF018DF
:10162D00EF0BF020EF0BF02F6C301ED8B0302A01ED
:10163D000E346E32BE27EF0BF025EF0BF02BEF0BB8
:10164D00F0316C321ED8B0322A31503210D8B4324B
:10165D00EF0BF034EF0BF058EF0BF0010E336E3C47
:10166D00EF0BF0D89031363236332A32AE41EF0BD4
:10167D00F043EF0BF038EF0BF031502F5C32503060
:10168D0058D8A04CEF0BF04EEF0BF052EF0BF031A2
:10169D00502F5E3250305AD89032323132332E4381
:1016AD00EF0BF03450D8B45EEF0BF060EF0BF0643D
:1016BD00EF0BF02F6C301ED8B0302A2FC02FF0302A
:1016CD00C030F01200556E0B0E5518D8A471EF0BEB
:1016DD00F073EF0BF089EF0BF00C4A0D2A0DBE8164
:1016ED00EF0BF00D5009E1090E0C5CD8A081EF0B4A
:1016FD00F083EF0BF0A6EF0BF0000E0D6E090E0C44
:10170D006EA6EF0BF00C0E5518D8A490EF0BF092BF
:10171D00EF0BF0A6EF0BF00C06D8A00D060DBEA238
:10172D00EF0BF00D5006E10C04D8B0A0EF0BF0A2BA
:10173D00EF0BF0A6EF0BF0000E0D6E000E0C6E2CE5
:10174D000E316E2F0E326E800E336E06EC09F0C028
:10175D000E516E0C50300F9DEC06F00F0E0C02F377
:10176D00CF53F0F4CF54F00D02F3505426000E5326
:10177D0024316E010E5420326EC20E336E06EC090A
:10178D00F01200346A32BED0EF0BF0CEEF0BF0D674
:10179D00EF0BF0316C321ED8B0322A010E346E30A0
:1017AD00BEDDEF0BF0DBEF0BF0E3EF0BF02F6C304A
:1017BD001ED8B0302A010E341A000E366E000E35CA
:1017CD006E31503210D8B4EEEF0BF0F0EF0BF01885
:1017DD00EF0CF0010E336EF8EF0BF0D8903136327E
:1017ED0036332A32AEFDEF0BF0FFEF0BF0F4EF0BBB
:1017FD00F0D8903536363631502F5C32503058D8BF
:10180D00A00BEF0CF00DEF0CF012EF0CF031502F90
:10181D005E3250305A3580D89032323132332EFF0D
:10182D00EF0BF03450D8B41EEF0CF020EF0CF02479
:10183D00EF0CF0356C361ED8B0362A35C02FF03689
:10184D00C030F0120083EC07F0256A080E256432D3
:10185D00EF0CF034EF0CF036EF0CF041EF0CF025FF
:10186D0050D50FD96EDA6A255089EC06F0DF6E255A
:10187D002A2CEF0CF0D50E2F6EBD0E306E2F0E31C3
:10188D006E76EC0AF02F503010D8B450EF0CF052A9
:10189D00EF0CF063EF0CF0AD0E306E2C0E316E3E92
:1018AD00EC08F0E40E2F6E306AEF0E316E2F0E3213
:1018BD006EEAEC07F08BEF0CF0B90E306E2D0E3199
:1018CD006E3EEC08F0090E256E0C0E256471EF0CC2
:1018DD00F073EF0CF075EF0CF080EF0CF02550DB92
:1018ED000FD96EDA6A255089EC06F0DF6E252A6B6A
:1018FD00EF0CF0E40E306E316A3EEC08F0B60E30AF
:10190D006E2D0E316E3EEC08F0120026C0C6F0278B
:10191D00C0C7F028C0C8F029C0C9F02AC0CAF02B32
:10192D00C0CBF02CC0CCF02DC0CDF0200E0001CEE0
:10193D006F5D50030DF350600FD96EDA6ADF50CF33
:10194D006F5D50030DF350610FD96EDA6ADF50D021
:10195D006F200ED16F05C03BF006C03CF007C03DB7
:10196D00F008C03EF00A0E3F6E000E406E000E41B4
:10197D006E000E426EC0EC0AF03B50300F0001D2EB
:10198D006F05C048F006C049F007C04AF008C04BCB
:10199D00F00A0E4C6E000E4D6E000E4E6E000E4F88
:1019AD006EEBEC09F04850300F0001D36F2C500A4C
:1019BD000DF3502D24F00F1D6E29500A0DF3502AF2
:1019CD0024F00F1C6E26500A0DF3502724F00F1B28
:1019DD006E12002FEC0AF0010E72EC09F0216E0C64
:1019ED000E2118D8A4FDEF0CF0FFEF0CF011EF0D48
:1019FD00F012501310D8A406EF0DF008EF0DF00CF7
:101A0D00EF0DF0000E136E010E126E000E2F6E0113
:101A1D000E50EC07F012041310D8A418EF0DF01AA5
:101A2D00EF0DF027EF0DF01E50D8A420EF0DF02292
:101A3D00EF0DF027EF0DF038EC11F01E6E40EF0DAD
:101A4D00F012501310D8B42EEF0DF030EF0DF03D15
:101A5D00EF0DF01E50D8B436EF0DF038EF0DF03D10
:101A6D00EF0DF02150DBEC0FF040EF0DF02150E2C7
:101A7D00EC06F01E50D8B446EF0DF048EF0DF051C6
:101A8D00EF0DF012501310D8A44FEF0DF051EF0DD4
:101A9D00F0F2EF0CF01E6A000E136E000E126EF2D5
:101AAD00EF0CF000EF00F0206A8A0E206461EF0D5C
:101ABD00F063EF0DF065EF0DF070EF0DF020500EAF
:101ACD000FF6EC06F0326E205014EC08F0202A5B75
:101ADD00EF0DF07E0E196E206A080E206479EF0D61
:101AED00F07BEF0DF07DEF0DF092EF0DF020500F2C
:101AFD000D000EF3242F6E010EF420306E20500FCA
:101B0D000D0F0EF324316E010EF420326EEAEC0748
:101B1D00F0202A73EF0DF0870E2F6E010E306EC67A
:101B2D000E316E326AEAEC07F0206A0D0E2064A2C7
:101B3D00EF0DF0A4EF0DF0A6EF0DF0B3EF0DF020CB
:101B4D0050C60FD96EDA6ADF50326E195014EC0898
:101B5D00F0192A202A9CEF0DF0C40E306E2E0E3196
:101B6D006E3EEC08F0C60E306E316A3EEC08F0B6F3
:101B7D000E306E2D0E316E3EEC08F01200516EAC33
:101B8D00EC09F0040EA3EC07F02FC005F030C006F1
:101B9D00F0076A086A05C02FF006C030F007C031A3
:101BAD00F008C032F0630E336E000E346E000E3549
:101BBD006E000E366ED1EC08F02FC03BF030C03CFD
:101BCD00F031C03DF032C03EF0FF0E3F6E030E40CF
:101BDD006E000E416E000E426EC0EC0AF03BC00569
:101BED00F03CC006F03DC007F03EC008F036EF0EE9
:101BFD00F0000E5E6E000E5D6E8CEC0CF05AEC0D6E
:101C0D00F045EF0EF05D4A5E2A5EBE17EF0EF05EF8
:101C1D005009E1090E5D5CD8A017EF0EF019EF0E1B
:101C2D00F003EF0EF0000E5E6E080E5D6E03EF0E0C
:101C3D00F05D06D8A05E065EBE30EF0EF05E50077A
:101C4D00E1020E5D5CD8B02EEF0EF030EF0EF0031A
:101C5D00EF0EF0000E5E6E020E5D6E03EF0EF05194
:101C6D0050010AD8B4FFEF0DF0030AD8B409EF0EF6
:101C7D00F0010AD8B41FEF0EF045EF0EF08CEC0C0E
:101C8D00F01200819A818C818E81B250EF0EF0524C
:101C9D00EF0EF055EF0EF0010ECBEF0EF081B45AB2
:101CAD00EF0EF05CEF0EF05FEF0EF0040ECBEF0ECB
:101CBD00F081B664EF0EF066EF0EF069EF0EF007EF
:101CCD000ECBEF0EF081B86EEF0EF070EF0EF073DD
:101CDD00EF0EF00A0ECBEF0EF0818A819C818E8182
:101CED00B27BEF0EF07DEF0EF080EF0EF0020ECB1B
:101CFD00EF0EF081B485EF0EF087EF0EF08AEF0E48
:101D0D00F0050ECBEF0EF081B68FEF0EF091EF0ECA
:101D1D00F094EF0EF0080ECBEF0EF081B899EF0EA8
:101D2D00F09BEF0EF09EEF0EF00B0ECBEF0EF08151
:101D3D008A818C819E819E81B2A7EF0EF0A9EF0E54
:101D4D00F0ACEF0EF0030ECBEF0EF081B4B1EF0E51
:101D5D00F0B3EF0EF0B6EF0EF0060ECBEF0EF081F6
:101D6D00B6BBEF0EF0BDEF0EF0C0EF0EF0090ECBCF
:101D7D00EF0EF081B8C5EF0EF0C7EF0EF0CAEF0E03
:101D8D00F00C0ECBEF0EF0FF0E1200A60E316E2FE3
:101D9D000E326E820E336E06EC09F04E0E316E2F42
:101DAD000E326EC00E336E06EC09F0960E306E2EAE
:101DBD000E316E3EEC08F07D0E306E2E0E316E3E05
:101DCD00EC08F0640E306E2E0E316E3EEC08F07D98
:101DDD000E306E2E0E316E3EEC08F0206A090E208C
:101DED0064FBEF0EF0FDEF0EF0FFEF0EF022EF0FA4
:101DFD00F0F60E306E2F0E316E3EEC08F0205030A6
:101E0D000FA9EC06F0F40E306E2F0E316E3EEC087D
:101E1D00F020500F0D000EF324306E010EF4203122
:101E2D006E3EEC08F0B60E306E2D0E316E3EEC08A7
:101E3D00F0202AF5EF0EF04A0E306E2E0E316E3E6A
:101E4D00EC08F0200E016EA10E026E070E036E005F
:101E5D000E046E0106000E025A035A045A01280A96
:101E6D00E1022808E1032806E10428D8A441EF0F78
:101E7D00F043EF0FF030EF0FF0000E116E000E106B
:101E8D006E000E0F6E000E0E6E000E2F6E010E50B8
:101E9D00EC07F012007D0E316E2F0E326E830E3375
:101EAD006E06EC09F03D0E316E2F0E326EC00E3304
:101EBD006E06EC09F0C60E2F6E306A6E0E316E2F67
:101ECD000E326EEAEC07F0196A206A090E20647270
:101EDD00EF0FF074EF0FF076EF0FF091EF0FF01FA3
:101EED006A0D0E1F647DEF0FF07FEF0FF081EF0F86
:101EFD00F08EEF0FF01F50C60FD96EDA6ADF503239
:101F0D006E195014EC08F0192A1F2A77EF0FF020E4
:101F1D002A6CEF0FF0206A090E206498EF0FF09AEB
:101F2D00EF0FF09CEF0FF0ACEF0FF020500F0D0006
:101F3D000EF3242F6E010EF420306EC60E316E326C
:101F4D006AEAEC07F0202A92EF0FF0520E306E2D58
:101F5D000E316E3EEC08F0200E016EA10E026E07E2
:101F6D000E036E000E046E0106000E025A035A0493
:101F7D005A01280AE1022808E1032806E10428D8BD
:101F8D00A4CBEF0FF0CDEF0FF0BAEF0FF0000E1165
:101F9D006E000E106E000E0F6E000E0E6E000E2FE8
:101FAD006E010E50EC07F01200586E5804D8B4E2D2
:101FBD00EF0FF0E4EF0FF0F7EF0FF0020E12181322
:101FCD0010D8A4ECEF0FF0EEEF0FF06AEF10F00267
:101FDD000E5818D8B4F5EF0FF0F7EF0FF06AEF10B9
:101FED00F05804D8A4FDEF0FF0FFEF0FF048EF10FD
:101FFD00F0000E2F6E010E50EC07F048EF10F05868
:10200D005069EC0BF0000E136E020E126E37EF11CD
:10201D00F0CCEC0EF0000E136E010E126E37EF11B8
:10202D00F051EC0FF011EF10F0585065EC14F00C6E
:10203D00040D10D8A425EF10F027EF10F029EF10A4
:10204D00F009EF10F0000E136E010E126E000E0D62
:10205D006E000E0C6E000E2F6E010E50EC07F03759
:10206D00EF11F0A7EC12F0000E116E000E106E00C5
:10207D000E0F6E000E0E6E000E0D6E000E0C6E111C
:10208D00EF10F010C056F011C057F05750000AD89D
:10209D00B453EF10F037EF11F05650000AD8B406D4
:1020AD00EF10F0010AD8B40FEF10F0030AD8B417EF
:1020BD00EF10F0010AD8B41BEF10F0070AD8B438AE
:1020CD00EF10F037EF11F0020E5818D8A471EF1081
:1020DD00F073EF10F09BEF10F0000E116E000E106C
:1020ED006E000E0F6E000E0E6E1A6A000E0D6E0053
:1020FD000E0C6E1206D8A0130613BE90EF10F0133F
:10210D005006E11204D8B08EEF10F090EF10F0945D
:10211D00EF10F0000E136E000E126E000E2F6E01FA
:10212D000E50EC07F037EF11F012041310D8A4A2E3
:10213D00EF10F0A4EF10F037EF11F010501110D890
:10214D00B4ABEF10F0ADEF10F0B7EF10F0FC0E31B7
:10215D006E2F0E326EC00E336E06EC09F0BFEF100F
:10216D00F0FC0E316E2F0E326E800E336E06EC09C2
:10217D00F010500E0DF3CF56F00E50F20DF3507BC4
:10218D000F5624576E57C031F0326A830E336E06E8
:10219D00EC09F010500E0DF3CF56F00E50F20DF37A
:1021AD0050890F5624576E57C031F0326AC30E3323
:1021BD006E06EC09F019EF11F0104A112A11BEF15B
:1021CD00EF10F0115009E1040E105CD8A0F1EF10E2
:1021DD00F0F3EF10F0F7EF10F0000E116E040E108B
:1021ED006E000E2F6E010E50EC07F024EF11F01063
:1021FD0006D8A0110611BE0EEF11F0115006E11018
:10220D0004D8B00CEF11F00EEF11F012EF11F00039
:10221D000E116E000E106E000E2F6E010E50EC079B
:10222D00F024EF11F058500B0AD8B4E3EF10F0077B
:10223D000AD8B4FEEF10F024EF11F010501110D8A1
:10224D00A42BEF11F02DEF11F033EF11F0000E0F65
:10225D006E000E0E6E37EF11F0000E0F6E010E0EAA
:10226D006E120083EC07F0010E72EC09F0226E5F26
:10227D000E316E2F0E326E810E336E06EC09F0DAD2
:10228D000E316E2F0E326EC00E336E06EC09F0C895
:10229D000E516E145033089DEC06F0F90E316E2F71
:1022AD000E326EC90E336E06EC09F0C10E316E3270
:1022BD006ACB0E336E06EC09F01650536E17505460
:1022CD006E164A172AF40E535C010E5458D8B0728C
:1022DD00EF11F074EF11F07CEF11F02350C10FD915
:1022ED006EDA6A5F0EDF6E93EF11F0E90E165C0386
:1022FD000E1758D8B085EF11F087EF11F08FEF1151
:10230D00F02350C10FD96EDA6A200EDF6E93EF11F4
:10231D00F0000E176E000E166E0B0E2218D8A49A32
:10232D00EF11F09CEF11F0ACEF11F02550DF0FD94C
:10233D006EDA6A310EDF6E252A2350C10FD96EDA9F
:10234D006A2A0EDF6E232ABDEF11F00C0E2218D86B
:10235D00A4B3EF11F0B5EF11F0BDEF11F02550DF83
:10236D000FD96EDA6A300EDF6EA2EF11F0040E2572
:10237D0018D8A4C4EF11F0C6EF11F0E5EF11F0E499
:10238D000E2F6EDF0E306E316A76EC0AF02F503064
:10239D0010D8A4D4EF11F0D6EF11F0E5EF11F00045
:1023AD000E156E000E146E83EC07F02C0E306E2E93
:1023BD000E316E3EEC08F0010EA6EF12F0040E2564
:1023CD0018D8A4ECEF11F0EEEF11F0F4EF11F0834B
:1023DD00EC07F0144A152A3AEF11F0030E141815F4
:1023ED0010D8A4FCEF11F0FEEF11F0A4EF12F08362
:1023FD00EC07F0000E156E000E146E0B0E306E2DE8
:10240D000E316E3EEC08F0D70E316E2E0E326E8010
:10241D000E336E06EC09F0B30E316E2F0E326EC018
:10242D000E336E06EC09F0EA0E316E2F0E326ECCC5
:10243D000E336E06EC09F0580E596E020E5A6E00F0
:10244D000E5B6E000E5C6E89EF12F0C90E516E5967
:10245D00C03BF05AC03CF05BC03DF05CC03EF06448
:10246D000E3F6E000E406E000E416E000E426EC0AD
:10247D00EC0AF03B50300F9DEC06F0CA0E516E0A7F
:10248D000E3F6E000E406E000E416E000E426E59F4
:10249D00C03BF05AC03CF05BC03DF05CC03EF0C0AC
:1024AD00EC0AF03BC048F03CC049F03DC04AF03E5C
:1024BD00C04BF00A0E4C6E000E4D6E000E4E6E00AF
:1024CD000E4F6EEBEC09F04850300F9DEC06F050BE
:1024DD000E556EC30E566E000E576E000E586E558D
:1024ED0006000E565A575A585A55280AE1562808CA
:1024FD00E1572806E15828D8A487EF12F089EF128A
:10250D00F076EF12F05906000E5A5A5B5A5C5A5982
:10251D00280AE15A2808E15B2806E15C28D8A49A2C
:10252D00EF12F09CEF12F02CEF12F0000E2F6E0157
:10253D000E50EC07F0000EA6EF12F03AEF11F0126C
:10254D000083EC07F0E40E2F6E000E316E5F0E303F
:10255D006E000E336E040E326E20EC07F0DF0E2F80
:10256D006E000E316E5F0E306E000E336E040E3245
:10257D006E20EC07F0500E2F6E255038EC07F0252D
:10258D002A410E2F6E255038EC07F0252A530E2FB9
:10259D006E255038EC07F0252A530E2F6E25503836
:1025AD00EC07F0252A570E2F6E255038EC07F02535
:1025BD002A4F0E2F6E255038EC07F0252A520E2F7C
:1025CD006E255038EC07F0252A440E2F6E25503815
:1025DD00EC07F0252A3A0E2F6E255038EC07F02522
:1025ED002A040E2360FDEF12F0FFEF12F075EF13CA
:1025FD00F05F0E316E2F0E326E810E336E06EC09CA
:10260D00F0E40E316E326AC60E336E06EC09F0162A
:10261D0050356E1750366E164A172AF40E355C017A
:10262D000E3658D8B01DEF13F01FEF13F027EF1330
:10263D00F02350E40FD96EDA6A5F0EDF6E3EEF13B2
:10264D00F0E90E165C030E1758D8B030EF13F032C8
:10265D00EF13F03AEF13F02350E40FD96EDA6A203E
:10266D000EDF6E3EEF13F0000E176E000E166E01AC
:10267D000E72EC09F0226E0B0E2218D8A449EF133E
:10268D00F04BEF13F054EF13F02350E40FD96EDA43
:10269D006A310EDF6E232A65EF13F00C0E2218D867
:1026AD00A45BEF13F05DEF13F065EF13F02350E42F
:1026BD000FD96EDA6A300EDF6E51EF13F0040E2370
:1026CD0018D8A46CEF13F06EEF13F0DBEF13F000DE
:1026DD000E2F6E010E50EC07F0DBEF13F0F90E31FB
:1026ED006E2E0E326E800E336E06EC09F0DF0E315B
:1026FD006E326AC60E336E06EC09F01650356E1743
:10270D0050366E164A172AF40E355C010E3658D81F
:10271D00B093EF13F095EF13F09DEF13F02350DB13
:10272D000FD96EDA6A5F0EDF6EB4EF13F0E90E1695
:10273D005C030E1758D8B0A6EF13F0A8EF13F0B046
:10274D00EF13F02350DB0FD96EDA6A200EDF6EB473
:10275D00EF13F0000E176E000E166E010E72EC09DF
:10276D00F0226E0B0E2218D8A4BFEF13F0C1EF1399
:10277D00F0CAEF13F02350DB0FD96EDA6A310EDF9A
:10278D006E232ADBEF13F00C0E2218D8A4D1EF1311
:10279D00F0D3EF13F0DBEF13F02350DB0FD96EDA2C
:1027AD006A300EDF6EC7EF13F0070E2364E1EF13EF
:1027BD00F0E3EF13F0F7EF12F0DF0E2F6EE40E30B3
:1027CD006E316A76EC0AF02F503010D8A4F1EF1369
:1027DD00F0F3EF13F02EEF14F0236A030E2364FAD7
:1027ED00EF13F0FCEF13F0FEEF13F00BEF14F023EB
:1027FD0050DF0FD96EDA6ADF502F6E255038EC0797
:10280D00F0252A232AF4EF13F0AE0E306E2E0E3182
:10281D006E3EEC08F0E40E306E316A3EEC08F0B519
:10282D000E306E2D0E316E3EEC08F0E80E316E2E30
:10283D000E326E800E336E06EC09F0990E316E2F4E
:10284D000E326EC20E336E06EC09F044EF14F087B3
:10285D000E306E2D0E316E3EEC08F00A0E316E2FDD
:10286D000E326E800E336E06EC09F0C70E316E2FF0
:10287D000E326EC40E336E06EC09F0200E376EA1CB
:10288D000E386E070E396E000E3A6E3706000E3892
:10289D005A395A3A5A37280AE1382808E1392806B0
:1028AD00E13A28D8A45DEF14F05FEF14F04CEF146B
:1028BD00F0000E2F6E010E50EC07F012003D6ED1A0
:1028CD000E316E2F0E326E840E336E06EC09F00C47
:1028DD000E3D18D8A475EF14F077EF14F084EF14B3
:1028ED00F01A2A030E1A18D8A47FEF14F081EF14F2
:1028FD00F084EF14F01A6A9BEF15F00B0E3D18D80B
:10290D00A48BEF14F08DEF14F0A1EF14F01A50D842
:10291D00A493EF14F095EF14F0A1EF14F01B2A1708
:10292D000E1B649CEF14F09EEF14F0A1EF14F01B3E
:10293D006A9BEF15F00B0E3D18D8A4A8EF14F0AA62
:10294D00EF14F0BEEF14F01A04D8A4B0EF14F0B2E7
:10295D00EF14F0BEEF14F01C2A3B0E1C64B9EF14FB
:10296D00F0BBEF14F0BEEF14F01C6A9BEF15F00BEB
:10297D000E3D18D8A4C5EF14F0C7EF14F08CEF1569
:10298D00F0020E1A18D8A4CEEF14F0D0EF14F08C7C
:10299D00EF15F01D2A3B0E1D64D7EF14F0D9EF147F
:1029AD00F08CEF15F01D6A9BEF15F001C039F002A8
:1029BD00C03AF003C03BF004C03CF0012A000E0207
:1029CD0022032204223C503B1009E1F40E395C0134
:1029DD000E3A58D8B0F5EF14F0F7EF14F001EF15EB
:1029ED00F0F60E316E2F0E326EC40E336E06EC09FC
:1029FD00F09BEF15F00450031009E1E80E015C03A4
:102A0D000E0258D8B00DEF15F00FEF15F018EF15A9
:102A1D00F0260E316E326AC40E336E06EC09F09B51
:102A2D00EF15F0000E016E000E026E000E036E002B
:102A3D000E046E9BEF15F001C039F002C03AF003A1
:102A4D00C03BF004C03CF0012A000E022203220418
:102A5D00223C503B1009E1F40E395C010E3A58D876
:102A6D00B03BEF15F03DEF15F047EF15F0F60E31D9
:102A7D006E2F0E326EC70E336E06EC09F09BEF15FE
:102A8D00F00450031009E1E80E015C030E0258D862
:102A9D00B053EF15F055EF15F018EF15F00FEF15CA
:102AAD00F001C039F002C03AF003C03BF004C03C65
:102ABD00F0012A000E0222032204223C503B100991
:102ACD00E1F40E395C010E3A58D8B070EF15F07282
:102ADD00EF15F07CEF15F0F60E316E2F0E326ECA3B
:102AED000E336E06EC09F09BEF15F0045003100940
:102AFD00E1E80E015C030E0258D8B088EF15F08A9C
:102B0D00EF15F018EF15F00FEF15F01A50000AD869
:102B1D00B4DCEF14F0010AD8B422EF15F0030AD893
:102B2D00B457EF15F09BEF15F01BC02FF0306A0076
:102B3D000E326E0A0E316EC8EC0BF02F50300F2690
:102B4D006E1BC02FF0306A000E326E0A0E316E12FF
:102B5D00EC0BF02F50300F276E1CC02FF0306A0099
:102B6D000E326E0A0E316EC8EC0BF02F50300F295D
:102B7D006E1CC02FF0306A000E326E0A0E316E12CE
:102B8D00EC0BF02F50300F2A6E1DC02FF0306A0065
:102B9D000E326E0A0E316EC8EC0BF02F50300F2C2A
:102BAD006E1DC02FF0306A000E326E0A0E316E129D
:102BBD00EC0BF02F50300F2D6E3D04D8A4E9EF151E
:102BCD00F0EBEF15F055EF16F01BC02FF0306A004B
:102BDD000E326E0A0E316E12EC0BF02FC039F03042
:102BED00C03AF01BC02FF0306A000E326E0A0E3163
:102BFD006EC8EC0BF02F38F00B3910376E020EC388
:102C0D00EC06F01CC02FF0306A000E326E0A0E3149
:102C1D006E12EC0BF02FC039F030C03AF01CC02F03
:102C2D00F0306A000E326E0A0E316EC8EC0BF02FCA
:102C3D0038F00B3910376E010EC3EC06F01DC02FA6
:102C4D00F0306A000E326E0A0E316E12EC0BF02F60
:102C5D00C039F030C03AF01DC02FF0306A000E328E
:102C6D006E0A0E316EC8EC0BF02F38F00B391037A1
:102C7D006E000EC3EC06F0E90E306E2D0E316E3E79
:102C8D00EC08F0260E306E316A3EEC08F0B50E30D1
:102C9D006E2D0E316E3EEC08F00C4A0D2A1200001E
:102CAD000A50617373776F726420646F65736E275A
:102CBD007420666F756E6420696E20696E7465721E
:102CCD006E616C20454550524F4D206D656D6F7294
:102CDD00792C20616363657373696E672074686511
:102CED002064656661756C742070617373776F72A3
:102CFD006420692C652E20313031300A0D000A4DCB
:102D0D006178696D756D206368616E6365206669B4
:102D1D006E6973686564207761697420666F7220CF
:102D2D003630207365636F6E6420616E642074723B
:102D3D007920616761696E206C617465722E2E2E2B
:102D4D002E0A0A0D000A4C6F6773206172652043CD
:102D5D006C65617265642066726F6D2074686520A4
:102D6D0045787465726E616C20454550524F4D200B
:102D7D006D656D6F72790A0A0D000A506173737774
:102D8D006F7264205265736574696E672069732074
:102D9D00756E7375636365737366756C2C207472D1
:102DAD007920616761696E200A0A0D000A5061730E
:102DBD0073776F726420666F756E6420696E20691B
:102DCD006E7465726E616C20454550524F4D206D8D
:102DDD00656D6F727920692C652E20000A54696D1E
:102DED0065206F6620426C61636B20626F7820698D
:102DFD0073206D6F64696669656420617320004995
:102E0D006E697469616C697A6174696F6E2073752E
:102E1D00636365737366756C2E2E2E0A0A0D000A98
:102E2D00456E746572656420746F204461736862C9
:102E3D006F617264204D6F64650A0A0D002D2D2D92
:102E4D002D2D2D2D2D2D2D2D2D2D2D2D2D2D2D2DA5
:102E5D002D2D2D0A0A0D00204C6F67732020202088
:102E6D0054696D652020204556205350200A0D00D1
:102E7D002D2D2D2D2D2D2D2D2D2D2D2D2D2D2D2D75
:102E8D002D2D2D2D2D2D0A0D000A5468652045760A
:102E9D00656E74206C6F677320617265203A0A0D40
:102EAD00000A50617373776F726420526573657495
:102EBD00656420617320004576656E7420646574C9
:102ECD006563746564202D3E20004368616E636503
:102EDD002066696E6973686564210050617373774C
:102EED006F7264205570646174656400436F6D6624
:102EFD006F726D2050617373776F726400506173E0
:102F0D00776F7264204D69736D6174636800202062
:102F1D002054696D65202020455620535020004CCB
:102F2D0020202054696D65202020455620535000E7
:102F3D00436C656172205375636365737366756C5D
:102F4D00005669657720696E2054657261746572EB
:102F5D006D00456E7465722050617373776F726486
:102F6D000048483A4D4D3A5353204E41204E4100B2
:102F7D00436C656172204C6F6773202020004361A4
:102F8D007220426C61636B20426F780053756363EE
:102F9D0065737366756C6C79004C6F6720646F7721
:102FAD006E6C6F6164005761697420666F722000EA
:102FBD0050415353574F52443A0054727920416750
:102FCD0061696E005365742054696D650043682016
:102FDD004C6566740057656C636F6D650053656372
:102FED002E0031303130002E202020003A20002DCF
:032FFD003E000093
:020000040020DA
:08000000FFFFFFFFFFFFFFFF00
:020000040030CA
:0E000000FF071F1FFF8285FF0FC00FE00F409C
:00000001FF
